{
  "contractName": "AssetTracker",
  "abi": [
    {
      "constant": false,
      "inputs": [
        {
          "name": "Mname",
          "type": "string"
        },
        {
          "name": "Maddress",
          "type": "string"
        },
        {
          "name": "MitemName",
          "type": "string"
        },
        {
          "name": "Mquantity",
          "type": "uint8"
        }
      ],
      "name": "setInfo",
      "outputs": [],
      "payable": false,
      "stateMutability": "nonpayable",
      "type": "function"
    },
    {
      "constant": true,
      "inputs": [],
      "name": "getName",
      "outputs": [
        {
          "name": "",
          "type": "string"
        }
      ],
      "payable": false,
      "stateMutability": "view",
      "type": "function"
    },
    {
      "constant": true,
      "inputs": [],
      "name": "getAddress",
      "outputs": [
        {
          "name": "",
          "type": "string"
        }
      ],
      "payable": false,
      "stateMutability": "view",
      "type": "function"
    },
    {
      "constant": true,
      "inputs": [],
      "name": "getItemName",
      "outputs": [
        {
          "name": "",
          "type": "string"
        }
      ],
      "payable": false,
      "stateMutability": "view",
      "type": "function"
    },
    {
      "constant": true,
      "inputs": [],
      "name": "getQuantity",
      "outputs": [
        {
          "name": "",
          "type": "uint8"
        }
      ],
      "payable": false,
      "stateMutability": "view",
      "type": "function"
    }
  ],
  "bytecode": "0x6060604052341561000f57600080fd5b6106948061001e6000396000f30060606040526004361061006d576000357c0100000000000000000000000000000000000000000000000000000000900463ffffffff1680630115949c1461007257806317d7de7c146100a157806338cc48311461012f5780633ecc3d3d146101bd578063c819d85a146102ac575b600080fd5b341561007d57600080fd5b61008561033a565b604051808260ff1660ff16815260200191505060405180910390f35b34156100ac57600080fd5b6100b4610351565b6040518080602001828103825283818151815260200191508051906020019080838360005b838110156100f45780820151818401526020810190506100d9565b50505050905090810190601f1680156101215780820380516001836020036101000a031916815260200191505b509250505060405180910390f35b341561013a57600080fd5b6101426103f9565b6040518080602001828103825283818151815260200191508051906020019080838360005b83811015610182578082015181840152602081019050610167565b50505050905090810190601f1680156101af5780820380516001836020036101000a031916815260200191505b509250505060405180910390f35b34156101c857600080fd5b6102aa600480803590602001908201803590602001908080601f0160208091040260200160405190810160405280939291908181526020018383808284378201915050505050509190803590602001908201803590602001908080601f0160208091040260200160405190810160405280939291908181526020018383808284378201915050505050509190803590602001908201803590602001908080601f0160208091040260200160405190810160405280939291908181526020018383808284378201915050505050509190803560ff169060200190919050506104a1565b005b34156102b757600080fd5b6102bf610507565b6040518080602001828103825283818151815260200191508051906020019080838360005b838110156102ff5780820151818401526020810190506102e4565b50505050905090810190601f16801561032c5780820380516001836020036101000a031916815260200191505b509250505060405180910390f35b6000600360009054906101000a900460ff16905090565b6103596105af565b60008054600181600116156101000203166002900480601f0160208091040260200160405190810160405280929190818152602001828054600181600116156101000203166002900480156103ef5780601f106103c4576101008083540402835291602001916103ef565b820191906000526020600020905b8154815290600101906020018083116103d257829003601f168201915b5050505050905090565b6104016105af565b60018054600181600116156101000203166002900480601f0160208091040260200160405190810160405280929190818152602001828054600181600116156101000203166002900480156104975780601f1061046c57610100808354040283529160200191610497565b820191906000526020600020905b81548152906001019060200180831161047a57829003601f168201915b5050505050905090565b83600090805190602001906104b79291906105c3565b5082600190805190602001906104ce9291906105c3565b5081600290805190602001906104e59291906105c3565b5080600360006101000a81548160ff021916908360ff16021790555050505050565b61050f6105af565b60028054600181600116156101000203166002900480601f0160208091040260200160405190810160405280929190818152602001828054600181600116156101000203166002900480156105a55780601f1061057a576101008083540402835291602001916105a5565b820191906000526020600020905b81548152906001019060200180831161058857829003601f168201915b5050505050905090565b602060405190810160405280600081525090565b828054600181600116156101000203166002900490600052602060002090601f016020900481019282601f1061060457805160ff1916838001178555610632565b82800160010185558215610632579182015b82811115610631578251825591602001919060010190610616565b5b50905061063f9190610643565b5090565b61066591905b80821115610661576000816000905550600101610649565b5090565b905600a165627a7a723058203c73121dd602b128506c39d77880e48c968081d8d4c3a164fe5edbf96b678b190029",
  "source": "pragma solidity ^0.4.2; \r\ncontract AssetTracker {\r\n    string name;\r\n    string Waddress;\r\n    string itemName;\r\n    uint8 quantity;\r\n \r\n    function setInfo(string Mname,string Maddress, string MitemName, uint8 Mquantity) public {\r\n          name = Mname;\r\n          Waddress = Maddress;\r\n          itemName = MitemName;\r\n          quantity = Mquantity;\r\n    }\r\n \r\n    function getName() public constant returns (string) {\r\n          return name;\r\n    }\r\n    function getAddress() public constant returns (string){\r\n  \t\treturn Waddress;\r\n    }\r\n    function getItemName() public constant returns (string){\r\n    \treturn itemName;\r\n    }\r\n    function getQuantity() public constant returns (uint8){\r\n    \treturn quantity;\r\n    }\r\n}",
  "sourcePath": "F:\\bitcamp2018\\contracts\\farmerInfo.sol",
  "compiler": {
    "name": "solc",
    "version": "0.4.19+commit.c4cbbb05.Emscripten.clang"
  },
  "schemaVersion": "2.0.0",
  "updatedAt": "2018-03-24T21:54:37.304Z"
}